:020000040800F2
:1000000000280020154B0008614B0008614B0008D8
:10001000614B0008614B0008614B000800000000C4
:10002000000000000000000000000000614B00081C
:10003000614B000800000000614B0008614B0008A4
:10004000614B0008614B0008614B0008614B0008E0
:10005000614B0008614B0008614B0008614B0008D0
:10006000614B0008614B0008614B0008614B0008C0
:10007000614B0008614B0008614B0008614B0008B0
:10008000614B0008614B0008ED4A0008614B000815
:10009000614B0008614B0008614B0008614B000890
:1000A000614B0008614B0008614B0008614B000880
:1000B000614B0008614B0008614B0008614B000870
:1000C000614B0008614B0008614B0008614B000860
:1000D000614B0008614B0008614B0008614B000850
:1000E000614B0008614B0008614B0008350C0008AB
:1000F000614B00080000000000000000000000004C
:1001000000000000000000005FF808F12DE9FF4842
:1001100002F0A8F8784B794CDA6906AD42F001029A
:10012000DA61DA694FF4704942F00402DA6145F8A5
:10013000089D012302272046294600268DF8143009
:100140004FF03C088DF816608DF8157002F012FA29
:1001500020462946CDF8108002F00CFAA4F81A9037
:100160000F23A4F81A806648294604938DF814706A
:1001700002F000FA4FF4707320462946049302F00F
:10018000F9F9A1465E4FB4B238462146012202F089
:10019000DFF9A11D594889B20222013602F0D8F9CF
:1001A000042EEFD1544E574CF3694FF0010A43F03F
:1001B0000103F361F3694FF0000843F00203F361B8
:1001C0004FF4805B20462946CDF810B08DF814A07E
:1001D0008DF816808DF815A002F0CCF9A4F81AB0AD
:1001E00020464FF4004B2946CDF810B002F0C2F97A
:1001F000A4F81AB038464FF4807B2946CDF810B0E9
:1002000002F0B8F90223A7F81AB038468DF8143076
:1002100029468023049302F0ADF94FF400532046A1
:100220002946049302F0A6F94FF48043204629465C
:10023000049302F09FF93B6A4FF0804023F0704333
:100240003B623B6A0F2143F040533B62636A23F4F5
:1002500070036362636A43F440136362636A23F06A
:1002600070636362636A43F040736362736A43EA74
:100270000A03736204F07EFB736A234843F00203AF
:1002800073620F2104F076FB336A204843F01003B9
:100290003362514604F06EFB336A1D4843F0040399
:1002A0003362032104F066FB46468DF814808DF816
:1002B0001580032E0CBF002301238DF81730154B3A
:1002C000294603EBC602928853F8360001360492A1
:1002D00002F050F9042EECD103F0ECFD084B1B8A20
:1002E00003F40043C3B9B9F8103013F0020F14BF80
:1002F0000122032211E000BF003802400008024042
:1003000000000240000402400004004000100140D0
:1003100000080140644D00080022D84BD2B2197881
:100320000139C9B2FD290BD813F8010BD44919447E
:1003300081F80808D3498B42F6D1002A00F03381B6
:10034000920704D5D048D149082204F0CFFCCE4B07
:100350009F2183F82310182183F824101C2183F88F
:100360002610152183F82C10882183F82E106C217B
:100370001E20802283F82F10722183F8202083F81A
:100380002500102283F8301083F83300012130203B
:1003900083F8212083F831100022042483F83400EC
:1003A00083F837104020322183F8350083F822206B
:1003B00083F82D2083F8324083F8381083F83620F4
:1003C00003F14C0003F5BC7E0246002601360021F5
:1003D000022750244FF00A08032E02F8107C02F87E
:1003E0000F1C22F80E4C22F80C1C42F8081C42F894
:1003F000041CA2F8008002F59672E7D11430704513
:10040000E2D1152283F8C0234FF6F07B40F6FC02C0
:10041000A3F8C2234FF0040AA3F854B0A3F868B0BD
:100420004FF42F624FF6E07EDFF898B28020A3F8F9
:10043000C42383F83DA0A3F840E09E644FF0010E72
:100440004FF0070C4FF0C30983F86560A3F888608C
:1004500083F879A00F264FF6107A082283F83C0023
:10046000596483F850009865C3F85C9083F8640081
:10047000D966C3F870B083F87800A3F87A60A3F85F
:100480007CA0C3F88010C3F8849083F86801A3F8B7
:100490007861A3F84C20DC87A3F860C083F851E0B2
:1004A000A3F85240A3F874C0A3F8664083F869E14A
:1004B000A3F8A4621E26A3F89662754E4FF0090BAE
:1004C000C3F89C62734EA3F88CB1C3F8A0623226C5
:1004D000A3F8AA624FF29006C3F8B062A6F1E02634
:1004E0004FF0A0094FF0640B8F3EA3F86A91A3F878
:1004F0007EB1C3F8B4624FF0F0094FF0820A4FF0BA
:10050000FF0B1226C3F87011C3F8841183F8911100
:10051000C3F89811C3F89C1183F89402A3F89812B9
:1005200083F8A802A3F8AC1283F8BC02A3F86C917C
:10053000C3F8744183F87CA183F87D71A3F880B17E
:10054000C3F8884183F890A1A3F8A0E1A3F89241F1
:10055000A3F8949183F89572A3F8B88283F8A972EE
:10056000A3F8CC62A3F8C012C3F8C412C3F8C8122F
:10057000A3F8D412484983F8D002C3F8D8124749E7
:10058000142083F8BDE2A3F8BE42A3F8E0C283F8CA
:10059000D172A3F8D202C3F8DC121B781BB93A4817
:1005A0003A4904F0A3FB3E4B00273E4A1F805F8080
:1005B0009F803D4B3D4E4FF00108FF21117051705F
:1005C0009170C3F80080336A4FF0030943F400735D
:1005D0003362374820232946364C04938DF8158022
:1005E0008DF814908DF8177001F0C4FF3248294639
:1005F000CDF8108001F0BEFF29462F48CDF81080BD
:1006000001F0B8FF636903A823F460336361236CCE
:1006100023F01F0343F005032364636923F0E063C1
:100620006361236C23F4787343F4807323646369F8
:1006300023F060536361236C23F4F84343F41053B5
:100640002364A36843F48063A360A36823F0F003EA
:1006500043F01003A360194B5A6822F440325A60E9
:10066000636823F0407323F4807343F48073636002
:10067000A268134B1340A360236B25E00000080819
:10068000CBF8F717C8030808D4000020594D00081C
:10069000E600F000010000141230F90001000070C3
:1006A0008C050020890500200000474200380240E8
:1006B00000000240002401400004024000270140E5
:1006C000FDF7FFC0C7000F4023F0F87343F4001399
:1006D0002363636843F440336360636843F020033B
:1006E000636012238DF80C308DF80F808DF80D901B
:1006F0008DF80E7002F020FEA3687D4843EA0803DF
:10070000A3607C4C1023214684F804802360A771E9
:10071000E771677101F02EFF774B28211A201F70B7
:1007200001F06EFE28211F2001F06AFE28211E2004
:1007300001F066FE28211D2001F062FE1C20282108
:1007400001F05EFEF369DFF8E08143F00203F3613C
:10075000736A43F480037362336943F48003336143
:10076000336923F480033361644B9888B36880B2A3
:1007700003F00C030C2B1DD8DFE803F01C1C1C1C21
:10078000071C1C1C251C1C1C09005D4B1CE0B368CD
:10079000B268C3F3834318F80310B368C9B2DB032C
:1007A00054BF574B574BC2F381524B430132B3FBFB
:1007B000F2F309E073684FF40042C3F342330133AC
:1007C00002FA03F300E04F4B4F4A9168C1F3031163
:1007D00041444E7A9168F340C1F302214144497A81
:1007E0009268CB40C2F3C22248494244527AB3FBDA
:1007F000F1F120F03F02414E0A4392B2B2803288BA
:10080000434822F001021204120C3280414AB3FB29
:10081000F2F34FF4967251439BB24FF47A72002B6D
:1008200091FBF2F108BF0123013143F4004389B287
:100830003184B383338800229BB243F001033380B9
:100840003388294623F4816323F002031B041B0C25
:1008500033804FF48043338102238DF81430012319
:100860008DF816308DF815304FF4406304938DF8F1
:10087000172001F07FFE26480A21042201F068FEBD
:10088000042223480B2101F063FE33884FF4FA62FF
:100890009BB243F001033380D8F81C30B3FBF2F372
:1008A00014225343143B13F1FF3301D300BFFAE783
:1008B000194E012719490922002300973E2003F011
:1008C0007BFC96F82C30384603F03F0386F82C303A
:1008D00003F0FFFC96F82D30B14613F0010F104BDA
:1008E00024D0104A00201A6003F038FD22E000BF37
:1008F0000000024040000020000500200058004099
:100900000024F40000093D000038024040420F007E
:1009100000040240804F1200D4000020504D000817
:1009200024050020D84D000800000020B34A1A60BA
:1009300003F0C0FAB24F01263B6A002043F00803DF
:100940003B62B04B1A8822F440721204120C1A80D7
:1009500040F23F12DA6204221A859E821A8C22F03B
:1009600001021204120C1A841A8C198B22F0020252
:1009700021F0730109041204090C120C324341F0F6
:100980006001586319831A841A8B294622F00802E1
:100990001204120C42F008021A831A8892B242F032
:1009A00080021A801A8892B232431A808DF815603C
:1009B000954E02238DF816008DF817008DF814302F
:1009C00030464023049301F0D5FD336A23F0706371
:1009D0003362336A43F04073336299F836003E461F
:1009E0008A4F00B91E20387003F062FC736A2846F3
:1009F00043F010037362D8F81C20854E41F288330F
:100A0000B2FBF3F33288013B92B23280F3620023EF
:100A100033850123B382B28992B21A43B2812B2269
:100A20008DF8102002228DF812308DF813308DF8D9
:100A3000112002F081FC33889BB243F00103338024
:100A4000744B754B1A6842F002021A60DFF8E081BD
:100A500001F008FCB8F800204FF4FA73B2FBF3F190
:100A600003FB11239BB2002B51D1227A6B4B013235
:100A7000D2B20A2A88BF01221A72237A013B072BBD
:100A800045D8DFE803F0041937444444443799F962
:100A90002E20634B002A02DB93F837203AB199F8F5
:100AA0003630A3BB902003F01DFF60722FE093F857
:100AB0003030013B63722AE099F83630584ABBB9AE
:100AC000637A92F82F10994204D33B78012B1ED9F8
:100AD000013B07E092F830209A4218D83B783F2B30
:100AE00015D80133494A1370387803F0E1FB0EE062
:100AF0003B700CE0802003F0F5FEA27A474BA11872
:100B00000132D2B2142A88BF0022C8729A72B8F891
:100B100000203223B2FBF3F103FB11239BB2082B1D
:100B20004DD103F0E3FB99F82C303E201A0903F075
:100B30000F0343F0700342F05C028DF81130012383
:100B40008DF81020009329460222002303F034FB85
:100B500094F8206094F81FA03046BAF1000F18D026
:100B600003F0B7FB16F0010B15D1304603F0B1FBD3
:100B70005E4656450ADAF300616A03F1400000F070
:100B8000F800194403F07EFB0136F2E70023E37717
:100B900001E003F09EFB8020224903F073FB94F8F0
:100BA0002030352B03D0C0201F4903F06BFB94F895
:100BB000280003F08EFB94F8290003F08AFBB8F8B4
:100BC00000204FF4FA73B2FBF3F103FB112340F260
:100BD000F3119BB28B420FD1144994F82A308988C3
:100BE00004EB43020901C320013391FBF0F103F050
:100BF0001F03918584F82A3030BF27E7D0590008B9
:100C000000380240000C0140000002409C0400201B
:100C10000010004084050020003C024040000020FD
:100C2000D40000203005002039050020A606002051
:100C3000AC0000202DE9F047B94C41F287322388FF
:100C40008CB001339BB2934288BF002300222380E3
:100C50001346B44E032BB15806EB0207D8B24FEA45
:100C60004305098ABF8803D10F4240F0C98402E0DE
:100C70000F4200F0C584AC48002101334153042BDE
:100C8000A0F10800415302F10802E2D12388DA07FB
:100C90000DD5A64A00211170C821A54A1068470643
:100CA00040F1E084A24A11684D0600F1ED8403F0A2
:100CB0000302032A09D19F49A08C4988984A884297
:100CC00086BF00F1FF3090849184C822B3FBF2F11B
:100CD00002FB11339BB2002B5ED194F82650904B4F
:100CE000002D41D193F8569093F8F08309F07F09D5
:100CF00093F859A083F82690B8F1000F2BD0D04577
:100D000004D18D4A05EB8503D05C1CE001278449A2
:100D1000CB1993F85920904511D805EB8500304444
:100D20007B1E07441944034497F8200091F859109A
:100D300093F820300090404601F020F903E001379D
:100D4000052FE4D107E07D4A00B2AB5C834240F35B
:100D5000A184013BAB540135052DCDD1B9F1000F74
:100D600002D1012384F8263094F8262094F85F10ED
:100D7000013A84F826206A4B012211B193F8F51349
:100D800001E093F8601083F8F8236422A3F8F613C7
:100D900083F8F92302F054FB94F8FA23604B012AFC
:100DA00003D02AD3022A23D034E0B3F8FC231AB1AB
:100DB000013AA3F8FC232DE0242183F8FE23D3B2CB
:100DC0004B43D4F80004C118C35A043903EB83031E
:100DD000A4F8FC33134604314868594A42F823000A
:100DE000486902EB83020133042B1061F3D111E057
:100DF000D3F8243473B198470CE00022C3F82424BC
:100E000003F2034203F21343002102F8011F9A4246
:100E10001174F9D14B4F04AD0FCF0FC597E80F00F8
:100E200094F8289485E80F0094F9562009F10109F7
:100E3000002A5FFA89F909F00F03B8BF38484FEA72
:100E400093010CAFB8BF90F8F10307EB8105A8BF81
:100E50004FF48070E718002AB8BF314A97F804743D
:100E600084F828342344B8BF92F8F22393F814345A
:100E700000FB07F0A8BF4FF480724FF080475A4341
:100E80003B880012C0F5807023F0010345F8200C68
:100E900012120CA81B042C4DC2F5807200EB8101CC
:100EA0001B0C41F8102C3B802B88384623F00103A3
:100EB0001B041B0C2B8004A901F0B6F908A92846D5
:100EC00001F0B2F9FF237B626B62204B01224FF4E9
:100ED0007041BA8209F00309AA8259833C215983DF
:100EE00009F10C0109F1020902FA01F102FA09F211
:100EF00089B292B219831A833B88DFF824809BB2AF
:100F000043F001033B802B889BB243F001032B800D
:100F100094F82934012B1BD03BD3022B34D041E071
:100F2000AC000020644D0008C8000020A40600208A
:100F300000240140A6060020844D00089D040020E6
:100F4000B0040020A04D000800040040000802404A
:100F5000B8F82A341BB1013BA8F82A3422E00C214E
:100F6000DAB24A43D4F8301488F82C3488188A5AF4
:100F700002EB8202A4F82A24C2189178AB4A995451
:100F80000133092BF8D10DE0D8F8403453B198471C
:100F900008E00023C8F84034A44A002199540133E2
:100FA000092BF9D194F844844FF0030AB8FBFAFAFC
:100FB0000AEB4A0A0023CAEB080AB8F1020F0493AD
:100FC000059306935FFA8AFA04D9B8F1050F8CBF2E
:100FD0000223012394F956200CA9002AB8BF944A91
:100FE00001EB830304EB0801B8BF92F8F32391F8F7
:100FF0003414A8BF4FF480724A438E4F121243F844
:10100000202C3B888C4D23F001031B041B0C3B80E0
:101010002B884FF4805223F001031B041B0C2B8000
:10102000864B38461A834FF400421A834FF480727D
:10103000A3F580631A8304A901F0F6F8284605A9F0
:1010400001F0F2F8FF237B6201226B6206EBCA0318
:10105000BA82AA82DA6DB3F8603008F101085383CE
:101060003B885FFA88F89BB243F001033B802B88F2
:10107000B8F1080F9BB243F00103DFF8B4912B8065
:1010800084BF002389F8443494F8453498BF89F824
:101090004484674A33B1022B16D1D2F848349BB14D
:1010A000984711E0C2F8483482F84C3482F8503442
:1010B00082F84D3482F8513482F84E3482F852343A
:1010C00082F84F3482F8533494F85474584D3806EB
:1010D0002FD595F855E410224FEA4E0C05EB0C0382
:1010E000B3F85614B3F86604554B89B138B12028CB
:1010F00007D0B1FBF0F500FB151080B208B91A83D8
:1011000000E05A8304EB0C030139A3F8561410E0F5
:101110005A830EF10103DBB207F07F079F4285F887
:10112000553401D0072B04D9002384F8543484F8B3
:10113000553402F085F922883223B2FBF3F703FB22
:101140001727BFB23A4D002F40F0C080DFF8008172
:10115000D5F8783408F17402934232D1D5F87C3452
:1011600023B1984710B1FE2807D0AFE0002384F8E0
:10117000803484F88134334B20E095F8803495F83E
:10118000812408EB0301013291F88810D2B2914218
:1011900085F8812400F29A800133DBB2042B94BFDE
:1011A00085F8803485F8807494F88034A5F88274CA
:1011B00006EB8303D3F8903085F88174C4F87C344F
:1011C00084E0186840B90421902210238DE80E00B5
:1011D00005F284411C4A0CE0FF280DDD036905F28D
:1011E0008441DA7A384600921A7B01925A7B029245
:1011F0001A68082301F07CF894F896240C4B5ABB2B
:10120000D3F878241269917A01B9012183F89614F0
:101210005368FBB1108998473F2201460B4803F001
:1012200065FD002384F8D63416E000BFE0040020FA
:10123000AC00002000100140000801400004024002
:1012400000000240353E00087C5A0008430500209B
:10125000644D000884F8973494F89634C34D013BEC
:1012600084F89634D4F8783405F28D471B69012050
:10127000DA7A394600921A7B01925A7B02921A68F6
:10128000082301F035F80728024611D8D5F878343C
:101290001869C2F10803C17ADBB20091017B0191A8
:1012A000417B01200291B91805F2974201F020F824
:1012B000AF4B03F1090213F8011F09B9202119707E
:1012C000597A09B9202159729342F4D127884FB134
:1012D000A84B5A6AC4F8D8244FF6FE721A820CB092
:1012E000BDE8F0873D4694F8DC14A04B8A1E012A25
:1012F0001ED993F8550000F0020000F0FF02B8B9C3
:1013000003F2DD41FF20012D685404D0022D05D0E9
:1013100083F8FA236DE183F829246AE1D3F878147D
:1013200008689549884200F0648183F8452460E1AB
:10133000924ABB5A0BB1013BD353D05B8B4B002875
:1013400040F05781032903F2DD4840F0928093F882
:10135000E61493F8E70403EB010C9CF8DDC4BCF140
:10136000FF0F0DD04FF4967C0CFB01FC4FF01409DD
:1013700009FB00CC634493F864C0CCF3400C01E05B
:101380004FF0010C002308F80530BCF1000F0CD021
:101390004FF496734B434FF0140808FB0033DFF80B
:1013A000CC814344B3F8748000E0E04601296F4BE0
:1013B00022F8078025D013D3022940F01A81142285
:1013C00002FB003090F8BDA2B0F8BE92B0F8C08227
:1013D000D0F8C42200F53070806883F8451433E0FB
:1013E000142202FB003090F865A0B0F86690B0F8C7
:1013F0006880C16E026F022083F8FA0306EB8A0050
:1014000090E0142202FB003090F891A1B0F8929184
:10141000B0F89481D0F89811D0F89C21022083F87C
:10142000290406EB8A00C2E093F8DF2483F84554D0
:1014300001FB023191F8BDA2B1F8BE92B1F8C082B1
:10144000D1F8C422D1F8C80206EB8A01D1F868119C
:10145000A3F84895C3F84814A3F84A85C3F84C2567
:10146000C3F85005BCF1000F00F0C38000F094FCFD
:10147000BFE018F80590102318F805004049013026
:10148000C0B20E2888BF002048554FF496716943BA
:1014900018F805004FF0140C0CFB0011214491F8D2
:1014A0006410013B11F0800F02D1002BE4D1A0E0C9
:1014B000002B00F09E802D4B93F8E8C36B004CFA94
:1014C00003FC0CF0030CBCF1010F40F092804FF4D0
:1014D000967808FB05F8B9F1FF0F18BFC1F3400C6F
:1014E000142101FB00802044B0F87400012D1F4B33
:1014F000D0535FFA8CFC45D0022D95D093F8DD24B3
:101500004FF0020A01FB023191F8650001F1680217
:10151000B1F86690B1F868809268C96E83F8FAA352
:1015200006EB8000D0F84401A3F8E894C3F8240443
:10153000A3F8EA84C3F8EC14C3F8F024BCF1000F5C
:1015400057D00022A3F8F424C3F8F824C3F80825E0
:10155000C3F8FC24C3F80C25C3F80025C3F81025F4
:10156000C3F80425C3F8142543E000BFAC000020F5
:101570002F050020001000401C4E00088C050020A4
:101580008905002093F8DE244FF0020A01FB0231A6
:1015900091F8910101F5CA72B1F89291B1F8948174
:1015A0009268D1F8981183F829A406EB8000D0F84E
:1015B0005C01A3F81895C3F84004A3F81A85C3F892
:1015C0001C15C3F82025BCF1000F12D00022A3F88F
:1015D0002425C3F82825C3F83825C3F82C25C3F8DB
:1015E0003C25C3F83025C3F84025C3F83425C3F89B
:1015F00044250135032D07F102077FF474AE67E639
:1016000061198A8B013292B21E2A8A8309D1244A37
:1016100002EB83035B68002B3FF438AB9847FFF77E
:1016200035BB40F2DC57BA427FF430AB8A8A08B14E
:10163000032807D122F0020222B104EB83035B6886
:1016400003B198476319998A47F23052013189B240
:10165000914294BF99829A8225444FF47A73AB8366
:10166000FFF714BB906840F0010090604A1E12F032
:10167000FF017FF412AB0B498A886FEA02526FEACE
:1016800012528A80FFF70EBB916841F08041916051
:10169000FFF70DBBBFF65FAB0133FFF75BBB00BFCE
:1016A000AC000020A60600202DE9F047394C238825
:1016B000002B6AD1384B394A1B8803EB8303238004
:1016C00001231360364B1B68D80644BF022111600A
:1016D000990602D5116802311160D068314950B9BC
:1016E0003148006800F00F05C0F3031048602B4834
:1016F0000D600125C5602D480F6800884E685FFAAF
:1017000080F94FEA102A2A48D2F800C00546002284
:10171000BA4205D113F0010F02D005F802900AE099
:1017200013F0400805D015F8028048FA0CF85FFA6B
:1017300088F805F80280B24205D113F0020F02D0FA
:1017400080F810A00AE013F0800805D090F810800F
:1017500048FA0CF85FFA88F880F810800132102AF5
:1017600000F10100D4D113F0040F0CBF01220F22AD
:1017700013F0080F0CBF01230F2317441E4407F07A
:101780000F0706F00F060F604E602388013B238091
:10179000BDE8F087A005002094050020B4050020D6
:1017A0009C050020A4050020980500209605002037
:1017B000B00400200F4B1A88BAB90F4A11680A0DFD
:1017C00012EB820208BF0122C1F303411A804A1EB4
:1017D0000E2A0AD8094A1068084400F00F00106069
:1017E0005068014401F00F0151601A88013A1A80D3
:1017F0005AE700BF000600209C050020A405002039
:10180000124910B50888124B124A28B118800020DE
:101810000880114909681160198811B10C48013913
:1018200001800E491B880878002B126808BF002031
:1018300000230121994011EA0204094914BFC85448
:10184000CC540133102BF4D110BD00BF94050020FF
:10185000A0050020A4050020980500209605002082
:10186000B00400202DE9F0472F4E3388002B56D1CD
:101870002E4B2F481B882F4A03EB83033380C3680A
:101880005BB92D49096801F0070101600021D154BD
:101890000133092BFAD10123C360284B01211960C0
:1018A00027490968CD0644BF02241C608C0602D576
:1018B0001C6802341C600468224D032C8CBFC4F1E8
:1018C0000707274695F800905F60D3F800A0002333
:1018D0001D4DBB4215F803C008BF02F80C900AD09A
:1018E00011F0400805D012F80C8048FA0AF85FFAA7
:1018F00088F802F80C8015F803C0ED1A12F80CC035
:10190000ED790133042B02F805C0E1D111F0040F89
:101910000CBF012307231C4404F007040460338830
:10192000013B3380BDE8F087D0050020C4050020CE
:10193000D4050020E0040020C8050020E4050020B4
:10194000CC050020C6050020805D00082DE9F0418F
:10195000264C2388002B44D1254B26491B8826483A
:1019600003EB83032380CB685BB9244A126802F03F
:1019700007020A600022C2540133092BFAD1012365
:10198000CB601F4B01221A601E4A1268D60644BF64
:1019900002251D60950602D51D6802351D601A4E90
:1019A0000D6896F800C0D3F800800023174EAB42B4
:1019B000F65C02D100F806C007E012F0400703D041
:1019C000875D47FA08F7FFB287550133082BEDD141
:1019D00012F0040F0CBF012307231D4405F0070577
:1019E0000D602388013B2380BDE8F081D0050020F5
:1019F000C4050020D4050020E0040020C805002014
:101A0000E4050020CC050020C6050020805D00080C
:101A1000084A13881BB11388013B13807047322199
:101A2000118005490878054958540133092BFAD12A
:101A3000F1E700BFD0050020C6050020E00400202B
:101A4000704770477047054B93F837200AB1002262
:101A500000E0012283F83720704700BFD400002047
:101A6000064B93F82E2002F07F010929CCBF22F00B
:101A70007F02023283F82E20704700BFD40000207E
:101A8000054B93F82E2011064CBF02F07F0262F046
:101A90007F0283F82E207047D4000020054B93F876
:101AA000232011064CBF002262F07F0283F823201E
:101AB000704700BFD4000020054B93F82D209107FC
:101AC0004CBF22F0020242F0020283F82D20704740
:101AD000D4000020054B93F82D20D1074CBF22F0F5
:101AE000010242F0010283F82D207047D40000204B
:101AF000044B054893F82D3013F0020F034B18BF29
:101B000018467047D4000020A05D0008905D0008D2
:101B1000064B596811F0010F08BF054A4FEA510101
:101B20000ABF4A4059605A60187970470006002081
:101B300059F1FF7FF8B5364C2388002B63D1354B24
:101B400035481B8803EB83032380C36893B1036884
:101B5000D3F1010338BF00230360304B1A681F46DE
:101B600012F0800F14BF0223002355060ED5063352
:101B7000DBB20BE00123C360294B03F1100100220B
:101B800003F8012F8B421A74F9D1E0E7910644BFA4
:101B90000C33DBB2D206234A48BF1833A2F110013E
:101BA00048BFDBB201F1200C0E4683B112F8105C85
:101BB0009D428CBFC3EB0505002502F8105C0D7C2F
:101BC0009D428CBFC3EB050500250D7402E002F8B1
:101BD000103C0B740132624501F10101E5D103684B
:101BE00001229A403B681A420DD0FFF791FF0A4B41
:101BF0000D4A1B6800F00F00128800EB0310DB0099
:101C000042FA03F333542388013B2380F8BD00BF1D
:101C1000A005002094050020A40500209C050020BC
:101C2000AF040020C00400209605002073B5274CA7
:101C30002389002B44D1E5682D23D5F1010538BF58
:101C400000252381E560FFF763FF214A00F01F00B4
:101C50001268072898BF1F4B4FEA12618DF80410D5
:101C60004FEA124198BFC0188DF805104FEA1221B3
:101C700098BF037A8DF8061088BFFF230DF103018A
:101C80000DF106004E785E43C6F3072601F8016F9A
:101C90008142F7D112F0010F0F4B9DF804009DF81F
:101CA00005109DF8062005D003F8250003EB8503F9
:101CB000597004E018711870597159709A719A70BE
:101CC0002389013B238102B070BD00BF00060020C4
:101CD000FC050020805D0008F8040020094B0A4A3A
:101CE00093F8201093F82100090693F8223041EA76
:101CF000004141EA0321136803F001030B43136021
:101D000094E700BFD4000020FC050020F8B51D4D6D
:101D10002B8993BB1C4B1D4F1B88EE6803EB830381
:101D20002B813B681A4CD6F10106C3F307424FEAF8
:101D3000136138BF0026C3F307236270A37062717A
:101D4000A371EE6021702171FFF7E2FE114B1B6859
:101D5000DAB2904211D93A68190E12F001004FEA36
:101D600013424FEA132300D026B921706270A3708A
:101D700000B116B121716271A3712B89013B2B81D6
:101D8000F8BD00BF00060020F4050020FC0500207F
:101D9000F8040020F8050020054B00221A81DA60C3
:101DA000DA611A611A625A615A629A619A627047DC
:101DB000000600202DE9F041194D002380460E4613
:101DC000174685F8363002F0CDFE05F12C0420B917
:101DD000302385F8353008230CE0092390FBF6F218
:101DE00006FB12000F49095C1046E154013B0AB1A1
:101DF000002BF3D1B8F1000F04DA1D442D2285F831
:101E00002C20013B3FB1C7F109079F4203DA202292
:101E1000E254013BF9E7581C2044BDE8F08100BFC3
:101E200000060020B05D00086FF48073C3182D2BEE
:101E300000F28180DFE803F0177F7F7F191F7F7F2B
:101E40002929297F7F7F7F2F3535357F7F7F7F7FD2
:101E50007F7F7F7F7F7F7F3A44606A70747F7F7F60
:101E60007F787878787836487047354B93F82D30FE
:101E700013F0010F04E0324B93F82D3013F0020FF2
:101E8000304B314808BF184670472D4B102118447D
:101E900010F8E90C4DE02A4B2C4A93F923002C4B07
:101EA00009E0274B184410F8ED0C41E0244B294A77
:101EB00093F92E00284B32EA200028BF18467047BD
:101EC0001F4B93F82E0000F07F030A2B11D8DFE898
:101ED00003F00610341008100A100C100E001D48F4
:101EE00070471E4870471E4870471E4870471E487E
:101EF00070470A2104221DE0114B1C4A93F8370059
:101F00001B4B00280CBF1046184670470C4B0A218B
:101F100093F8380003220DE0094B93F82F0007E0F7
:101F2000074B93F8300003E0054B184410F8F90C08
:101F30000A2102223EE70F4870470F48704700BF52
:101F4000D4000020C15D0008C35D0008C65D000824
:101F5000E95D0008C55D0008E85D0008CF5D000888
:101F6000D45D0008D95D0008DE5D0008E35D00086F
:101F7000985C0008614D0008CA5D000810B5BDF905
:101F80000840A3420ED088420CDB904208DCE41AE1
:101F9000401A6043511A90FBF1F2134498B202E0E8
:101FA000204600E0184600B210BD1E4B13B51C6859
:101FB0001D4BB3F900001D4BB3F9C213B3F9C42391
:101FC00000230093FF23FFF7D9FF78230093C4F386
:101FD0000721C4F307420123FFF7D0FF144B154A32
:101FE000D860154B93F8371069B9240E04BF01214E
:101FF00083F83710118818BF83F83740814202D226
:102000000C4C013121801288824284BF094A108021
:1020100093F83720013A83F8372002B0BDE810402A
:10202000FFF742BB98050020D0000020D40000201C
:10203000A405002094050020000600202DE9F347A8
:10204000314D2B882BB12B88013B2B8002B0BDE892
:10205000F0872E4B2E4A1B88128803EB83032B80BC
:102060002C4BFF241968914286BF043919601A600D
:10207000B3F90000284BB3F9C213B3F9C423FF230B
:1020800000930023FFF77AFF244B80F0FF001A68CB
:1020900000B2110E04BF42F07F421A601A6800239A
:1020A000C2F307410094120EFFF768FF08230021D6
:1020B000009322460B46FFF761FF194B194AD8607F
:1020C000194B16461B88DFB24FEA13284FEA532AF2
:1020D0004FEA57090023984203D305D000210C464C
:1020E00004E041463C4601E051464C46F45406EBC0
:1020F000030C0133082BD4738CF8101002F1FF325B
:1021000082F82010E7D19EE7A0050020940500206A
:10211000D0000020B4050020D40000209C05002041
:10212000A4050020B0040020960500202DE9F3410D
:10213000354C23892BB12389013B238102B0BDE8B3
:10214000F081324A324D128802EB820222812A68E3
:10215000100603D542F08002E3612A602B6859061D
:1021600003D12B4A43F00F0313602A4E26493368EC
:102170005A0604BF43F001033360274BE2691B8812
:10218000934206D9287802449A4294BFCA61CB612F
:1021900005E03078121A9A422CBFCA61CB611F4BFE
:1021A000B4F91C00B3F9C213B3F9C423FF2300939D
:1021B0000023FFF7E3FE1A4B20621A88F8230093EE
:1021C000110A0023D2B2FFF7D9FE3668D5F8008095
:1021D0000746E0600025C5F10302D20026FA02F3AB
:1021E00028FA02F2D2B20092DBB2F822384600217D
:1021F000FFF7C4FE0B4BC0B2EA181071E85401356A
:10220000032DE8D197E700BF00060020F405002069
:10221000FC050020F8050020D0000020D40000209C
:10222000F6050020F80400200B6843630B4B98422E
:1022300002D14B6883637047B0F1804F06D0084BE2
:10224000984203D003F58063984205D14B688363BD
:102250008B68C363CB680364704700BF000801400C
:10226000000400401D4A10B590681D4B00F00C00A2
:102270001C490C281FD8DFE800F01E1E1E1E071E7A
:102280001E1E091E1E1E0B00174A1CE0174A1AE0EC
:1022900094689068C4F383440C5D9268E4B2D203FE
:1022A00054BF114A114AC0F3815054430130B4FB6A
:1022B000F0F0186008E052684FF40040C2F3423278
:1022C000013200FA02F21A60044A9268C2F3031261
:1022D0001144497A1A68CA401A6010BD0038024099
:1022E0001C000020200000200024F40000093D0014
:1022F0002DE9F843044610461D460E4690469DF8CB
:10230000209002F091FCA842074658DD3049314B3D
:1023100031F8140098B933F8142007EB090C624522
:1023200006DDBDF8242023F8140021F8142006E06F
:10233000BDF82800013221F8140023F8142031F8E8
:10234000142033F81430013A21F814207A1B9A42F1
:10235000D4BFC3EB07042C46002C0DDD08EB0302B1
:102360000027BBB2AB4208D2D35D0137A74206F8C3
:10237000013BBBB2F5D100E00023AC4202DB2846B2
:10238000BDE8F8834A46002CB8BF121937461AB187
:10239000B118C91B002901DC002407E0AB42FBD2C5
:1023A0002021013307F8011B9BB2F1E71A1992B201
:1023B000AA42E4D218F804203A550134F6E7304630
:1023C00041462A4602F092FCF8B2BDE8F88300BF0D
:1023D0009E0600203A000020084B9A69D10709D4D4
:1023E0009A69D20508D49B6913F4F05F0CBF0420EE
:1023F000032070470120704702207047003C0240D4
:1024000030B5114C2378254603F07F02072A19DCEA
:102410000BB90E4C23701F289CBFC0F1200084B262
:102420000B4888BF002420F812400A4843F080037C
:1024300001EB810120F81210581CC0B2287000F086
:102440007F0030BDFF2030BD0005002001050020C9
:102450001205002002050020164910B50B680C4635
:102460001A6913695BB1908A9847134B93F823203C
:102470002AB193F824000A210130FFF7C1FF236835
:10248000DB68B3B10B4A4FF6FF7113600B4A0C487F
:10249000118051800B4A0023137003804380064B48
:1024A00093F823202AB193F824000A21BDE81040B4
:1024B000A6E710BD24050020D40000203A0000202B
:1024C0009E060020430500200B4B1A6852688AB113
:1024D0001A600A4A00235380094A4FF6FF7151805F
:1024E000084A1370084B93F823201AB193F824007C
:1024F0000A2185E7704700BF240500209E060020C2
:102500003A00002043050020D40000200B4B1A683D
:1025100092688AB11A600A4A00235380094A4FF62A
:10252000FF715180084A1370084B93F823201AB1A9
:1025300093F824000A2163E7704700BF24050020B8
:102540009E0600203A00002043050020D400002011
:1025500001F00703C90800EB81009B000F2199409F
:102560009A4010B5046A24EA01010162016A11432C
:10257000016210BD2DE9F0410F68002301229A404D
:1025800002EA0705954228D15A00032494400668C0
:10259000E44304EA060C0E7906FA02F8013E4CEA1E
:1025A000080C012EC0F800C010D8866804EA060C9A
:1025B0004E7996404CEA060686608688B6B226EAD0
:1025C00005058E799E40B6B235438580C5682C409E
:1025D000CD7905FA02F22243C2600133102BCDD12E
:1025E000BDE8F0810D4A82B000230093019301926F
:1025F0000093009B2BB1019B143301934FF40033E4
:1026000003E0019B183301930223019A12681342DD
:102610000CBF0020012002B0704700BF00580040EE
:10262000104A002330B5937218B93023537208232F
:102630000BE009230C4D00F00F042C5D0009D4546D
:1026400003F1FF3301D0002BF4D139B1C1F10901FD
:10265000994203DA2020D054013BF9E7581C10447A
:1026600030BD00BF38060020B05D00080B4B1A7863
:102670000E2A11D80A4B4FF496711B784B43142144
:1026800001FB023307490B441A7991074CBF22F032
:10269000020242F002021A71704700BF9305002047
:1026A000920500200C0100200B4B1A780E2A11D83D
:1026B0000A4B4FF496711B784B43142101FB0233F4
:1026C00007490B441A79D1074CBF22F0010242F0AE
:1026D00001021A71704700BF930500209205002087
:1026E0000C0100200B4B1A780E2A11D80A4B4FF41C
:1026F00096711B784B43142101FB023307490B44AD
:102700001A7911064CBF02F07F0262F07F021A7143
:10271000704700BF93050020920500200C010020A7
:1027200010B50C4B0C491A7891F8C003520040FACE
:1027300002F303F003030133032B28BF0023032418
:10274000934004FA02F220EA0200034381F8C03306
:1027500010BD00BF92050020D400002013B5042353
:102760008DF80730FFF738FE4FF400448DF807006E
:102770009DF80730012B06D134B1FFF72DFE013C47
:102780008DF80700F4E714B905238DF807309DF89C
:10279000070002B010BD144B70B55A68D20703D5BC
:1027A000124ADA60124ADA60124D134C2B78013B60
:1027B000DBB2FD2B84BF20232B702B1903F1774351
:1027C00003F578031E68FFF7C9FF042802D12660CD
:1027D000FFF7C4FF094B04349C42EED1024B5A6808
:1027E00042F001025A6070BD003C0240EFCDAB895F
:1027F00005040302D400002000000808C8030808EC
:10280000554B40F223121B88934260D0B3F5927F60
:1028100010D2B3F5867F07D2B3F5847F2ED840F26D
:10282000071293421CD070476FF488729A18022ADC
:102830002FD97047B3F5977F0AD8B3F5957F63D248
:10284000B3F5927F4DD040F22512934253D070479A
:1028500040F20142934229D0B3F5846F69D07047AA
:102860003E4B93F82C20002A74D03D490A68013A67
:102870000A6002F03F0283F82C2062E0384A1168B7
:10288000002967D001391160344A134403F8E91C68
:1028900009E0334A116801295CD9013911602F4AD6
:1028A000134403F8ED1C92F823304CE02C492B4ADA
:1028B0000B68012B01D9013B02E04FF0000302D16C
:1028C0000B6092F82330096882F836103BE0244B05
:1028D0001A68002A3ED0013A1A60204B83F838204B
:1028E0002FE01F4B1A68002A34D0013A1A601B4BA4
:1028F00083F82F2025E01A4B1A685AB3013A1A6060
:10290000164B83F830201CE0B3F5957005D0134AC0
:10291000134413F8FA1C013100E00121104B1A682E
:102920008A4217D9013A1A600C4B191881F83120E4
:1029300007E00C4B1A7851B213310BDB013A1A70D5
:10294000064B93F823302BB1044B0A2193F8240053
:10295000FFF756BD704700BF94060020D40000204A
:102960009006002074060020414B40F222221B8872
:1029700010B5934210D004D85BB1B3F5047F20D0DA
:102980006DE0B3F5097F26D040F2252293423CD07A
:1029900065E0FFF7BBFD62E0364B1A68EF2A5ED8B0
:1029A00035494FF496700C783449013209781A6031
:1029B0004843142101FB0401314B1944A1F84C2078
:1029C00020E02C4A13680D2B49D8013313602A4AA2
:1029D00013702B4B16E0294B4FF496711878264B49
:1029E00041431C78142202FB0412254B254C1A4447
:1029F000205C92F83D100138814202F138022EDA53
:102A00000131517193F8231022E01C4B1A4A1B78B4
:102A100010784FF496725343142202FB0032184987
:102A20000A443832D38891F82310092B01D8013396
:102A30000DE0632B01D8053309E0B3F57A7F01D2AD
:102A4000143304E041F28730834208D83233D38014
:102A500029B10B4B0A2193F82400FFF7D1FC0A4B54
:102A600000225A80094B4FF6FF725A8010BD00BFFA
:102A70009406002090060020930500209205002077
:102A8000D4000020F05D00089E0600203A000020DF
:102A900010B50B4C238823B964232380094B3522BE
:102AA0001A7009490822094802F020F92388013BDD
:102AB0009BB2002B23800CBFFE20022010BD00BF64
:102AC0002E05002060000020D400002030050020EA
:102AD000644B70B51B88A3F50973042B00F2C0800A
:102AE000DFE803F00330527899005F4B5F4E1978AE
:102AF00033784FF496725A43142303FB01235C4A44
:102B00000A2113445D7900222846FFF753F9594CF6
:102B1000014604F10B0002F029F85749132204F191
:102B20000B0002F0B1F83278544B04F10B0003EBC8
:102B300082035968132201EB051102F0A5F8002366
:102B4000A3771EE0484B4FF496721978474B494CD7
:102B50001B785A43142303FB0123454A0A211344DB
:102B6000D8880622FFF726F9014604F10B0001F090
:102B7000FDFF04F10B004249082202F085F8002312
:102B8000E37404F10B0070BD374B4FF49672197863
:102B9000364B3C481B785A43142303FB0123344A29
:102BA000394913441C8901F0E1FF04212046FFF755
:102BB00037FD06220146334802F066F80323314A06
:102BC000995C11F0DF0F04BF302199540133062BBB
:102BD000F5D140E0244B4FF496721978234B1B78C3
:102BE0005A43142303FB0123284A0821134458683D
:102BF000FFF716FD08220146224802F077F800236D
:102C0000204A995C11F0DF0F04BF30219954013341
:102C1000082BF5D11FE0144B4FF496721978134B23
:102C20001B785A43142303FB0123184A0821134439
:102C30009868FFF7F5FC08220146124802F056F8A2
:102C40000023104A995C11F0DF0F04BF3021995422
:102C50000133082BF5D107480023C3740B3070BD36
:102C60000B4870BD940600209305002092050020BB
:102C70000C01002038060020B9610008F05D000852
:102C80001A5D000843060020D05E000814010020F1
:102C9000614D00082DE9F041154F4FF496763B78D1
:102CA000DFF85C80734398F80020142505FB02339D
:102CB000104C02222344B3F84C000A21FFF77AF8A3
:102CC00001460D4801F052FF3A7898F8003056431B
:102CD00005FB03652C44B4F84C30632B04D806483C
:102CE0000649042201F0D0FF0348BDE8F08100BF8F
:102CF00092050020D400002043060020105F000849
:102D000093050020012838B50AD004D302280CD03E
:102D1000102837D011E01C4C1C4904F10B0008E0CE
:102D2000194C1B4904F10B0003E0174C194904F13D
:102D30000B0001F01BFF00232374174B124C1B7870
:102D4000032B1BD1154D2B780E2B17D814490822B5
:102D500004F10B0001F098FF28780A2102220130CB
:102D6000FFF728F80822014604F10B0001F08CFF60
:102D7000637C13F0DF0F04BF302363740023E3741C
:102D8000084838BD084838BD38060020DD5E000818
:102D9000E65E0008EF5E000888050020930500202D
:102DA000DE61000843060020D45E0008B0F5087F0D
:102DB00010B55AD006D8B0F5007F23D0B0F5047F07
:102DC00036D09FE040F22323984263D0B0F5097FCC
:102DD00074D040F22123984240F094804B4B4FF442
:102DE000967219784A4B4B481B785A43142303FBBD
:102DF0000123494A13441B7913F0020F474B08BFC4
:102E0000184610BD464B93F8C003414B1B785B003E
:102E100040FA03F303F00303012B75D0022B05D016
:102E2000404A4148002B18BF104610BD3F4810BD16
:102E30003F4C2323E37200232373344B0A21187879
:102E400002220130FEF7B6FF0422014604F10B0016
:102E500001F01AFF237B13F0DF0F01D0354810BDBE
:102E60003023237304F10B0010BD284B4FF49672EE
:102E70001978274B1B785A43142303FB0123264A56
:102E8000134493F90400234A244B12EA200038BF6C
:102E9000184610BD1D4B4FF4967219781C4B2648EE
:102EA0001B785A43142303FB01231B4A13441B7949
:102EB00013F0010F214B18BF184610BD1C4C002306
:102EC000E3722373114B4FF496721978104B1B78F1
:102ED0005A43142303FB01230F4A0A211344587950
:102EE0000222FEF767FF0422014604F10B0001F005
:102EF000CBFEE37A13F0DF0FB0D12046302300F889
:102F00000B3F10BD074810BD0D4810BD93050020B4
:102F100092050020C35D00080C010020C15D00087F
:102F2000D4000020614D0008C55D0008FD5E00086A
:102F30003806002043060020025F0008075F0008F3
:102F4000F85E000810B500220A214FF47270FEF7F7
:102F500031FF064C0146204601F008FE2046044998
:102F60000C2201F091FE204610BD00BF5706002044
:102F70000C5F000800200A210246FEF71BBF00205C
:102F80000A210246FEF716BF00200A210246FEF77C
:102F900011BF2DE9F04100260546C2B2334628494B
:102FA000595C0133142B0E44F9D17608254C3AB103
:102FB00006EBC6063223B6FBF3F62036B6B22AE09D
:102FC000B6B245BB0A27B6FBF7F82A463946404653
:102FD000FEF7F0FE014604F12B0001F0C7FD1A498F
:102FE000072204F12B0001F04FFE07FB1860394661
:102FF0002A4680B2FEF7DEFE0722014604F12B00CE
:1030000001F042FE04F12B001049072201F03CFEC2
:1030100084F8315010E000220A213046FEF7CAFE43
:1030200001460B4801F0A2FD09480A49052201F0BA
:103030002BFE002384F82F300548BDE8F08100BF47
:103040004B00002038060020125F0008145F0008C3
:1030500063060020BF5D0008F8B500231846204A2B
:103060009A5A0233402B1044F9D1C0F34F1764250C
:103070001C4CB7FBF5F6002230460A2184F83220BA
:1030800084F8332084F8342084F8352084F83620FE
:1030900084F83720FEF78EFE05FB16750146ADB2AB
:1030A00004F1320001F062FD092D94BF0E490F4971
:1030B00004F13200062201F0E7FD28460A21002231
:1030C000FEF778FE06220146094801F0DDFD562391
:1030D00084F83630002384F837300548F8BD00BF47
:1030E0006C00002038060020165F0008125F000800
:1030F0006A0600200A4B08B918880CE009491888AC
:10310000B1F8C2236423801A5843B1F8C4339A1A21
:1031100092B290FBF2F00A210422FEF74BBE00BFF0
:10312000D0000020D400002040F2044398421BD07D
:103130000AD8B0F5806F15D040F2014398423FD1D4
:10314000204B93F8360037E0B0F5826F38D340F269
:10315000114290420BD9B0F5846F31D11A4B93F9DB
:10316000000029E0194B00E0194B187824E0194BB6
:103170001988144BB1F5826F0AD1174AB3F8C213FC
:103180001288914210D9A2EB9212A3F8C2230BE04D
:10319000914209D1104AB3F8C413128891423CBF3E
:1031A00002EB9212A3F8C423A0F50C7003EB4003CA
:1031B00058880A21042201E00A210322FEF7FABD01
:1031C00006487047D4000020740600209C040020AC
:1031D0004900002094060020D0000020614D000826
:1031E000064B9A8A1B8B92B242EA0343034023F0B8
:1031F0007F431B1A58425841704700BF0058004097
:1032000038B5054641F20104FFF7ECF910B1013C75
:10321000FAD129E0154B41F201041A8892B242F426
:1032200080721A801248FFF7DBFF10B9013CF9D118
:103230000BE00E4B05F0FE051D8241F201040D4826
:10324000FFF7CEFF40B9013CF9D1084B1A8892B282
:1032500042F400721A8007E0044B01201A8892B2EF
:1032600042F400721A8038BD204638BD0058004034
:103270000100030082000700184B70B51A8806464B
:1032800092B242F480720C461A8041F20105144851
:10329000FFF7A6FF18B9013DF9D1002070BD7000FD
:1032A000C0B20CB140F001000C4B188244B941F29D
:1032B00001040C48FFF794FF68B9013CF9D1ECE731
:1032C000012C08D141F201040748FFF789FF10B92A
:1032D000013CF9D1E1E7012070BD00BF005800407A
:1032E00001000300820007000200030070B5074CD4
:1032F00005460E46FFF776F918B1013CFAD1204693
:1033000070BD28463146BDE87040B5E70140060073
:10331000074B10B5188241F201040648FFF760FF21
:1033200018B9013CF9D1204610BD012010BD00BFE5
:103330000058004084000700114B4278DB68DB43F3
:10334000C3F30223C3F10401C9B202FA01F10F224F
:1033500042FA03F38278C9B2134019430278094B49
:103360000901C9B21A4482F80013027801205109F8
:1033700002F01F0200FA02F243F82120704700BF5A
:1033800000ED00E000E100E010B5274C2468E443C4
:10339000224411448900C9B20F228A4002EA000483
:1033A000CC4020EA020004F00F040BB1013400E02D
:1033B000013C8C401D4B40F227211B8822408B4250
:1033C00042EA000214D0B3F50A7F1FD040F2262152
:1033D0008B4228D1164B4FF496711878154B1B78F9
:1033E0005943142303FB001313490B441A8110BDE6
:1033F0000F4B4FF4967118780E4B1B7859431423DA
:1034000003FB00130D490B445A6010BD084B4FF4E9
:1034100096711878074B1B785943142303FB00134C
:1034200006490B449A6010BD9806002094060020BF
:1034300093050020920500200C01002014010020BB
:1034400070B5154803782BB3013BDBB203700BBB9F
:10345000124A134B118F1B8899421BD08B4207D9FC
:10346000104C2478214489B2994228BF194611870B
:10347000118F0A4C8B4208D20A4DCE1A2D78AE42DB
:10348000D6BFC5EB010123872187074B128F5A63F3
:103490006423037070BD00BFA5040020380600201F
:1034A000A2040020A4040020000C01400A4A0023CA
:1034B00013600A4A13600A4BC0221A70094B0E228D
:1034C0001A70094B094A1A60094A5A60094A9A60F7
:1034D000094ADA60704700BF900600209806002075
:1034E0006900002068000020B00000201D3700089F
:1034F000254100085D450008B1360008094B01224E
:103500001A70094B094A1A60094A5A60094A9A60B6
:10351000094ADA60094BC7221A70094B0D221A704A
:10352000704700BF88050020B00000200128000877
:10353000053F000831420008853700086900002077
:1035400068000020084B1A8812B100221A8008E097
:103550001880064BA0F50C7003EB4000044B1B8851
:103560004380FFF7CBBF00BF94060020D4000020AB
:10357000D00000202D4B188040F22313984246D0F3
:10358000B0F5927F1AD2B0F5867F0DD2B0F5847F68
:1035900030D840F20713984246D1254B254A93F87C
:1035A0002C301360244A2CE06FF48873C318022B6C
:1035B0003AD81F4B184410F8ED3C1FE0B0F5977F48
:1035C0000DD8B0F5957F2AD2B0F5927F23D040F286
:1035D0002513984228D1164B93F830300EE040F274
:1035E000014398420FD0B0F5846F1DD1134B0022D8
:1035F0001A7019E00E4B184410F8E93C0E4A13609B
:103600000C4A136010E00A4B93F83630F6E7084B8B
:1036100093F83830F2E7064B93F82F30EEE7044B7F
:10362000184410F8F93CE9E7FFF768BF940600205A
:10363000D400002090060020980600207406002088
:10364000134A30B5138843B11388013B9BB2002B5A
:10365000138014BF0220FE2030BD4FF4C8711180CA
:103660000C4938204B600C4908700C480C49086024
:103670000C49062008700C490C485D5C08311C1888
:103680001D54595C0133082B6172F4D1DCE700BF93
:103690002E05002074060020600000204060000815
:1036A000640000205F000020195F00083005002042
:1036B000164B10B51A68164C164B8AB121685A5C25
:1036C0001F2A01D8202202E05D2A02D801325A5472
:1036D0000BE05E2A01D16122F9E77C2A05D8F5E7E3
:1036E0002268062A9CBF0132226093F823302BB156
:1036F000084B0A2193F82400FEF782FE2368403B22
:1037000013F0FF031CBF044A137010BD9006002085
:1037100098060020D400002069000020154B10B549
:103720001A68154C154B82B12268995C7A2901D927
:103730007A2102E0612902D90139995409E001D1C5
:103740005E21FAE7202904D9F6E722680AB1013A96
:10375000226093F823302BB1084B0A2193F8240000
:10376000FEF74EFE2368403B13F0FF031CBF044AE4
:10377000137010BD9006002098060020D400002091
:1037800069000020544B40F223121B8893425BD007
:10379000B3F5927F10D2B3F5867F07D2B3F5847F5D
:1037A0002AD840F2071293421CD070476FF48872F7
:1037B0009A18022A2BD97047B3F5977F0AD8B3F528
:1037C000957F5FD2B3F5927F48D040F225129342A5
:1037D0004ED0704740F20142934223D0B3F5846F3C
:1037E00067D070473D4B1A683E2A73D801321A6081
:1037F0003B4B83F82C2064E0384A1168FE2969D8D5
:1038000001311160364A134403F8E91C4EE0334A93
:1038100011681D295ED801311160314A134403F843
:10382000ED1C43E02D492E4A0B680BB9012302E041
:103830003F2B04D801330B6092F8233000E00023C3
:10384000096882F836103EE0244B1A68C72A41D82E
:1038500001321A60224B83F8382032E01F4B1A687D
:103860009F2A37D801321A601D4B83F82F2028E099
:103870001A4B1A689F2A2DD801321A60184B83F808
:1038800030201EE0B3F5977F05D0154A1A4412F890
:10389000F80C013800E04020104A1168814219D22A
:1038A000013111600E4A134403F8F91C92F82330D9
:1038B00009E00C4B1A7851B23B290BDC01321A702B
:1038C000074B93F823302BB1054B0A2193F82400C2
:1038D000FEF796BD704700BF9406002090060020BA
:1038E000D4000020740600202F4B40F227221B88B2
:1038F00070B593422D4C17D0B3F50A7F21D040F21A
:10390000262293422DD12A4B4FF496721978294BD7
:103910001B785A43142303FB01232344B3F84000CC
:1039200003210623042220E0214B4FF496721978DC
:10393000204B1B785A43142303FB01232344586C68
:103940000BE01B4B4FF4967219781A4B1B785A43B5
:10395000142303FB01232344986C0723002108222E
:1039600003E00021072308220846134D2E68134D5B
:103970001EB10123FFF708FD04E02A689A423CBF0C
:1039800001322A6094F823302BB1084B0A2193F8B6
:103990002400FEF735FD2B68403B13F0FF031CBFEE
:1039A000074A137070BD00BF94060020D4000020A9
:1039B0009305002092050020900600209806002024
:1039C0006900002038B52E4B40F227221B882D4C71
:1039D000934216D0B3F50A7F20D040F226229342BC
:1039E0002BD1294B4FF496721978284B1B785A43E8
:1039F000142303FB01232344B3F8400003210422D2
:103A00001EE0214B4FF496721978204B1B785A43D5
:103A1000142303FB01232344586C0BE01A4B4FF48F
:103A200096721978194B1B785A43142303FB012310
:103A30002344986C0021082202E000210822084655
:103A4000134B144D1B681BB10023FFF79DFC05E0D1
:103A50002B688B4284BF03F1FF332B6094F8233033
:103A60002BB1084B0A2193F82400FEF7C9FC2B6800
:103A7000403B13F0FF031CBF074A137038BD00BF63
:103A800094060020D4000020930500209205002019
:103A900090060020980600206900002008B52C4BF5
:103AA000188040F22223984222D005D8B0F5047F36
:103AB00047D1284B1B7828E0B0F5097F2AD040F287
:103AC000252398423DD1244A244B254925481A6094
:103AD00001F04CF81F4B4FF496721978224B1B786B
:103AE0005A43142303FB0123204A1344DA8825E0B8
:103AF000184B4FF4967219781B4B1B785A431423BA
:103B000003FB01231A4A13449B881A4A13601A4A7A
:103B1000136016E0104A114B184912481A6001F060
:103B200025F80C4B4FF4967219780F4B1B785A43BB
:103B3000142303FB01230D4A13445A790D4B1A60D9
:103B400008BD0F4BC7221A700E4B0D221A7008BD0C
:103B50009406002093050020505F000824050020F3
:103B6000475F000830050020920500200C0100206E
:103B70001C01002098060020900600203E5F0008EF
:103B800069000020680000201E4A38B513881546D9
:103B9000A3F226239BB2022B97BF1B4A00249B183B
:103BA0001C7C1A4B1878FFF7ADF80146184800F056
:103BB000DDFF00232B80174BC7221A70164B0C22F7
:103BC0001A70164B142202FB0434154B03221C609E
:103BD000144B1A70144B154A1A60154A5A60154A4C
:103BE0009A60154ADA60154B93F8232042B193F896
:103BF00024000A21013880B2BDE83840FEF700BC3D
:103C000038BD00BF94060020195F0008920500200F
:103C1000300500206900002068000020645F000873
:103C20002405002088050020B0000020054600087B
:103C3000F13F0008413C000869290008D400002039
:103C4000234A10B513881446B3F5047F16D004D860
:103C500043BBBDE81040FEF7FFBBB3F5097F16D0AC
:103C600040F2252293421DD11A4B1878FFF74AF8EB
:103C70000146194800F07AFF184A11E0154B1878F0
:103C8000FFF740F80146144800F070FF0AE0114BBE
:103C90001878FFF737F801460F4800F067FF104A21
:103CA000104B1A60002323800F4BC7221A700F4B52
:103CB0000C221A700E4B93F823203AB193F824008B
:103CC0000A210130BDE81040FEF79ABB10BD00BFCD
:103CD000940600209205002030050020DC5F0008DB
:103CE000C85F00082405002069000020680000204B
:103CF000D400002038B5194C23883BB979222280A2
:103D0000174A5360174B35221A701EE00F22B3FB7F
:103D1000F2F2C2EB02129B1A9BB2B3B9104D082209
:103D20006B681148062B98BF0133104998BF6B6030
:103D300000F0DCFF6A681346072B06DC0C480A49D2
:103D4000185C891AC8540133F6E72388013B9BB2FB
:103D5000002B23800CBFFE20022038BD2E05002042
:103D6000740600206000002030050020594D000836
:103D7000D400002070B5284C284B228882B9082531
:103D8000092121805A605A6125492A4625489D61AA
:103D900000F0ACFF22492A46234800F0A7FF31E09B
:103DA0005969102904D1D222228011225A6129E0B6
:103DB000012A27D1092222801C4A392010709869D3
:103DC0005A68904206D84A1C5A6102F007025A60AB
:103DD00008229A6159690F2914D8154A0729A2F1B6
:103DE000090688BF1646104A5D68A2F1090088BF1F
:103DF00010469A69755D511E072A45549CBF2025BF
:103E0000855499612388013B9BB20A2B23800CBF08
:103E1000FE20022070BD00BF2E0500207406002089
:103E2000594D0008300500203905002060000020B1
:103E3000355F000870B5194C238843B97923238076
:103E4000174B08225A60174B35221A701CE00F22BC
:103E5000B3FBF2F2C2EB02129B1A9BB2A3B9104E53
:103E600073680BB1013B73600F4D1049284608225F
:103E700000F03CFF7368072B06D80022EA5428465E
:103E80000B49082200F000FF2388013B9BB2002B66
:103E900023800CBFFE20022070BD00BF2E05002035
:103EA000740600206000002030050020594D0008F5
:103EB000D40000200A4B00221A700A4B0A4A1A60EA
:103EC0000A4A5A600A4A9A600A4ADA600A4B802211
:103ED0001A700A4B0C221A70094B39221A7070475B
:103EE00088050020B0000020C924000859410008BE
:103EF000592400080D2500086900002068000020F2
:103F000060000020364A40F22311138810B58B421E
:103F1000344C46D0B3F5927F1BD2B3F5867F0DD2D9
:103F2000B3F5847F32D840F207118B4248D12E4B33
:103F30001B6803F03F0384F82C3041E06FF4887174
:103F4000591802293CD828492344096803F8ED1C74
:103F500036E0B3F5977F0ED8B3F5957F2BD2B3F546
:103F6000927F23D040F225118B4229D11E4B1B6832
:103F700084F8303024E040F201418B420CD0B3F59C
:103F8000846F1DD1194B0021197019E01649234483
:103F9000096803F8E91C13E0134B1B6884F83630FA
:103FA0000EE0114B1B6884F8383009E00E4B1B689B
:103FB00084F82F3004E00C492344096803F8F91C05
:103FC00000231380FFF776FF94F823303BB1054BB5
:103FD0000A2193F82400BDE81040FEF711BA10BD85
:103FE00094060020D40000209806002074060020CB
:103FF000404A38B5138840F222218B4215463E4C88
:104000003CD008D823B3B3F5047F5FD13B4B1A688B
:104010003B4B1A705AE0B3F5097F3FD040F225229E
:10402000934253D1374B4FF496721878344B424336
:104030001978142303FB0123304A23441268DA87DA
:10404000FEF760FE0146304800F090FD2F4A3BE04D
:104050002C4A2F491078142505FB001013702D49A8
:10406000274A08601370FFF725FF94F82330002BD0
:104070003FD094F82400013880B235E0204B4FF453
:10408000967219781F4B1B785A43142303FB0123A4
:104090001A4A23441268A3F84C2017E0194B4FF436
:1040A00096721878164B42431978142303FB0123A8
:1040B000124A2344126883F83D20FEF723FE01468E
:1040C000114800F053FD144A124B1A6000232B8054
:1040D000124BC7221A70124B0C221A7094F823301C
:1040E0003BB1054B93F824000A21BDE83840FEF7A8
:1040F00087B938BD94060020D4000020980600201F
:10410000930500209205002030050020DC5F0008A8
:104110008056000824050020C85F000869000020C0
:104120006800002008B5094A094B1A60FFF7C2FE73
:10413000084B93F8232042B193F824000A21013858
:1041400080B2BDE80840FEF75BB908BD084E000824
:1041500024050020D400002010B5124C23681B68F1
:10416000EBB11A6913690BB1908A984723680E4A1C
:104170001B684FF6FF710D48118051800C4A236077
:1041800000231370038043800A4B93F8232032B13D
:1041900093F824000A21013880B2FEF731F9BDE816
:1041A000104087E6240500203A0000209E060020EB
:1041B00043050020D40000202DE9F84304461746AB
:1041C00099469DF82050884621B1042D02D855EA21
:1041D000020304D12046BDE8F843FFF711B80021DF
:1041E000FFF784F80128044617D165B10646AE42B0
:1041F00009DCA81BC00029FA00F0C0B2FFF788F85C
:1042000001360443F3E70025BD4206DA18F805003D
:10421000FFF77EF801350443F6E7044B20461A8881
:1042200092B242F400721A80BDE8F8830058004050
:10423000114B37B51A881D46B2F5846F09D10F4C62
:1042400001223023009273202146FFF7B5FF00239F
:10425000237000232B80FFF72DFE094B93F82320BA
:1042600042B193F824000A21013003B0BDE8304088
:10427000FEF7C6B803B030BD9406002074060020D7
:10428000D400002030B585B001240D4604A901F802
:10429000010D2246009400233E20FFF78DFF00947D
:1042A0002946082240233E20FFF786FF05B030BD97
:1042B0001FB5022200238DF80C308DF80D000092FE
:1042C00003A941F219037320FFF776FF05B05DF8EB
:1042D00004FB1FB5012204A901F8010D002300927F
:1042E0003E20FFF769FF05B05DF804FB30B5184BC1
:1042F0000022D878174B87B093F92E30002BA8BF37
:104300004FF48070134606AC1C44591C02F1200582
:1043100004F80C5CC9B206AC21440F4C0233A45C17
:10432000DBB24443062B4FEA242401F80C4C01D1A4
:104330000422E8E701320B2BD2B2E4D90023009328
:1043400003A90C227320FFF737FF07B030BD00BF71
:104350009D040020D4000020F8040020134A00230C
:10436000138053809380124A12491380124AFF200F
:104370001370124A08701370114A48701360114B81
:1043800002221A70104B114A88701A60104A5A6043
:10439000104A9A60104ADA60104B80221A70104B53
:1043A0000C221A700F4B35221A7070478C050020B2
:1043B0002E050020890500202D0500202C05002059
:1043C0002805002088050020B0000020451A0008BC
:1043D00059410008411A0008431A000869000020EA
:1043E000680000206000002038B5304A304B314C66
:1043F0001A6040F22723002598422560A0801AD039
:10440000B0F50A7F2AD040F22623984239D12A49B2
:104410002A4800F0ABFB0323A360294B4FF49672AC
:104420001978284B1B785A43142303FB0123264A8F
:1044300013441B8924E02549204800F097FB204BBA
:104440004FF4967219781F4BA5601B785A431423BA
:1044500003FB01231E4A13445B6811E01D49174802
:1044600000F084FB164B4FF496721978154BA5603B
:104470001B785A43142303FB0123154A13449B68FA
:10448000A381A368403B13F0FF031CBF124A1370C3
:10449000124B0E221A70124B124A1A60124A5A60BC
:1044A000124A9A60124ADA6038BD00BF505F0008B5
:1044B0002405002090060020A0610008300500209F
:1044C00093050020920500200C010020A96100083E
:1044D00014010020B261000869000020680000207B
:1044E000B0000020C5390008893B0008B14500082C
:1044F000E938000808B50E4B002218700D4B1A70F1
:104500000D4A0E4B1A600E4B03221A700D4B0E4AC9
:104510001A600E4A5A600E4A9A600E4ADA60FEF736
:10452000F1FBBDE8084001460B4800F01FBB00BF8F
:104530009205002093050020645F000824050020F8
:1045400088050020B000002005460008F13F000863
:10455000413C00086929000830050020104B114A31
:10456000196881F0010119609B68403B31B113F07B
:10457000FF031CBF0C490B700D2305E013F0FF0374
:104580001CBF09490B700E231370084B93F82320AE
:104590002AB193F824000A210130FDF731BF70479A
:1045A000900600206800002069000020D400002050
:1045B000104B114A196881F0010119609B68403B5A
:1045C00031B113F0FF031CBF0C490B700D2305E044
:1045D00013F0FF031CBF09490B700E231370084B27
:1045E00093F823202AB193F824000A210130FDF723
:1045F00007BF704790060020680000206900002077
:10460000D400002038B53C4C40F22222A3889342CB
:1046100010D004D85BB1B3F5047F1FD064E0B3F5CC
:10462000097F24D040F22522934235D05CE0FDF78B
:104630004BFF59E02268012A56D930494FF4967051
:104640000D782F492F4B0978013A4843142101FB7B
:10465000050119442260A1F84C201AE02368002BC0
:1046600042D0264A013B23601370264B11E0244BB5
:104670004FF496711A78214B51431878142202FB9B
:104680000012204B1A4492F83D10383261B30139C0
:10469000517193F8231020E0194B184A1B781078B9
:1046A0004FF496725343142202FB003215490A4418
:1046B0003832D38891F82310B3F57A7F01D9323B91
:1046C0000AE0642B01D9143B06E00A2B01D9053B13
:1046D00002E0012B08D9013BD38029B1094B0A2103
:1046E00093F82400FDF78CFE00232382064B4FF63F
:1046F000FF725A8038BD00BF90060020930500204D
:1047000092050020D40000203A000020084B02222D
:104710001A70084A084B1A60084A00231380084A96
:104720001380084A1360084A1360FDF735BB00BFC9
:10473000F1040020DD1C0008F4040020F405002032
:10474000F6050020F8050020FC05002038B51C4BBC
:1047500000221A705A709A70DA701A715A719A712E
:10476000DA71FFF7C3FD7320FEF74AFD3820FFF72B
:10477000B0FD0124E100134D01F1400000F0F8000C
:1047800029440134FFF77EFD072CF3D105F13801F0
:104790008020FFF777FDC02005F14001FFF772FD93
:1047A000094B1A6842F004021A601A6842F00202C9
:1047B0001A60064B1A6942F004021A6130BF38BD14
:1047C000F8040020386000080070004000ED00E0B0
:1047D0003F4B82B01A6842F480721A6099683D4A71
:1047E0000A409A601A6822F0885222F001121A6078
:1047F0001A6822F480221A609A6822F47D029A6074
:104800000022DA60009201921A6842F480321A6043
:104810002F4B1A6802F400320192009A0132009282
:10482000019A1AB9009AB2F5A04FF1D11B6813F49E
:10483000003318BF01230193019B012B05D0264BA8
:104840004FF000629A6002B07047244B4FF4006151
:104850001A68A3F5806342F00402C3F80024D3F879
:10486000002442F00102C3F80024D3F8002422F00F
:104870000202C3F800245A6A42F080525A62184A6F
:1048800011605168C906FCD49A689A609A689A6067
:104890009A689A609A6822F47D029A609A6842F453
:1048A00019029A601A6842F080721A60084B1A68FE
:1048B0009201FBD59A6822F003029A609A6842F04E
:1048C00003029A609A6802F00C020C2AFAD1B6E749
:1048D000003802400CC0FF8800ED00E0003C0240C0
:1048E00000700040F8B5B0F5807F07464FF000013A
:1048F0004FF0730034BF01260226FEF7F7FC0128B3
:10490000044601D000202AE00546701BC00027FAAB
:1049100000F0C0B2FEF7FCFC0135B54244EA0004E9
:10492000F3DD012CEED173202146FEF7A5FC40F00B
:1049300001000128E6D10D4A41F20104138823F455
:1049400080631B041B0C13800948FEF749FC10B957
:10495000013CF9D102E0054B1C8AE4B2E0B2034B02
:104960001A8892B242F400721A80F8BD00580040D2
:10497000400003000388B0F1804F10B59BB20AD00D
:10498000584A904207D002F58062904203D002F567
:104990008062904202D123F070039BB2524A90424F
:1049A00006D002F5806290421CBF23F440739BB294
:1049B0000380FF23C3620423038501238382CB0783
:1049C0001FD5038C002423F001031B041B0C03845C
:1049D000038C028B23F0020322F0730212041B04E7
:1049E000120C1B0C43F0010342F06002446302838B
:1049F0000384038B23F008031B041B0C43F0080300
:104A000003838C071FD5038C002423F010031B04A1
:104A10001B0C0384038C028B23F0200322F4E0425E
:104A200012041B04120C1B0C43F0100342F4C0428E
:104A3000846302830384038B23F400631B041B0C35
:104A400043F4006303834A071FD5038C002423F437
:104A500080731B041B0C0384038C828B23F4007370
:104A600022F0700212041B04120C1B0C43F480731E
:104A700042F06002C46382830384838B23F00803C3
:104A80001B041B0C43F0080383830B071FD5038C07
:104A9000002123F480531B041B0C0384038C828BA2
:104AA00023F4005322F4E04212041B04120C1B0CEA
:104AB00043F4805342F4C042016482830384838BB5
:104AC00023F400631B041B0C43F4006383830388FB
:104AD0009BB243F08003038003889BB243F0010341
:104AE000038010BD000400400010004010B5074BCB
:104AF00007491A78022A05D88C6D03EB420001326F
:104B000044801A706FF002030B6010BDA4060020F1
:104B100000240140002100F004B80C4B5B584350C6
:104B200004310B480B4B42189A42FFF4F6AF0A4A85
:104B300000F003B8002342F8043B084B9A42FFF40C
:104B4000F9AFFFF745FEFBF7E1FA70470062000896
:104B5000000000204000002040000020AC060020A3
:104B6000FFF7FEBF0028B8BF4042704780EA01024D
:104B7000844612F0030F4FD111F0030F32D14DF8DC
:104B8000044D11F0040F51F8043B0BD0A3F1013296
:104B90009A4312F0803F04BF4CF8043B51F8043BA9
:104BA00016D100BF51F8044BA3F101329A4312F021
:104BB000803FA4F101320BD14CF8043BA24312F028
:104BC000803F04BF51F8043B4CF8044BEAD0234625
:104BD0000CF8013B13F0FF0F4FEA3323F8D15DF8D7
:104BE000044B704711F0010F06D011F8012B0CF89F
:104BF000012B002A08BF704711F0020FBFD031F817
:104C0000022B12F0FF0F16BF2CF8022B8CF800209D
:104C100012F47F4FB3D1704711F8012B0CF8012B20
:104C2000002AF9D1704700BF20F0030110F0030003
:104C3000C0F1000051F8043B00F1040C4FEACC0C29
:104C40006FF000021CBF22FA0CF213434FF0010C6C
:104C50004CEA0C2C4CEA0C4CA3EB0C0222EA0302AB
:104C600012EACC1204BF51F8043B0430F4D013F024
:104C7000FF0F1FBF013013F47F4F013013F47F0F7C
:104C800018BF0130704700BF830770B42AD1036892
:104C9000A3F1013424EA030313F0803F08BF031D8E
:104CA00020D11C4653F8045BA5F1013626EA050520
:104CB00015F0803FF5D023782BB1631C1D781C467E
:104CC0000133002DFAD1013C8D1805E011F8013BAC
:104CD00004F8013F23B13AB1A94202F1FF32F5D104
:104CE00070BC70470446E6E76270F5E740EA0103EE
:104CF0009B0770B42AD1032A28D90C4603462146C3
:104D000054F8045BA5F1013626EA050616F0803F4B
:104D100005D1043A032A43F8045B2146EFD89AB13F
:104D20000C78013A1C7001333CB16AB111F8014FA3
:104D3000013A03F8014B002CF7D12AB11A440021A3
:104D400003F8011B9342FBD170BC70470346E6E7B2
:104D500038391D785D6D0C01062020202020202090
:104D60002000000000080240010000000000024096
:104D700000800F0000080240020001000004024011
:104D80000400020000FFE0550D0038FFFFFF00FFA8
:104D9000E0550DFFFFF0E0C000FFE05514000000FB
:104DA00000010000000100000001000000010000FF
:104DB00000010000000100000001000000010000EF
:104DC0000004024000100C000004024000800F00AC
:104DD0000000024000010800D05900080000000057
:104DE0000000000000000000B8590008010A01019D
:104DF00001000000353E0008912A0008F53C00083B
:104E000041360008753D0008E45900080000000024
:104E10001C4E0008A4590008E4580008E459000892
:104E2000084E0008304E0008A8580008FC5800083A
:104E3000E45900081C4E0008444E00080000000021
:104E400014590008E4590008304E0008584E000874
:104E5000000000002C590008E4590008444E0008E6
:104E60006C4E00080000000044590008E459000896
:104E7000584E0008804E00086C5800085C59000825
:104E8000E45900086C4E0008944E00089057000842
:104E900074590008E4590008804E00080000000022
:104EA000000000008C59000801180008A91600082D
:104EB000AB1F0008B5170008351B00083D2000088F
:104EC000111A00084D190008651800082D1C00086B
:104ED000DD1C00080D1D00082D210008995A00084E
:104EE00029310008100401000000000045350008C9
:104EF000100400009E5A0008293100081104010026
:104F0000000000004535000811040000A35A000805
:104F10002931000800040400000000000000000027
:104F200000000000A95A000829310008010404000B
:104F3000000000007535000801040000245200083C
:104F400000000000504F000800000000DC4E000888
:104F5000245200083C4F0008000000000000000040
:104F6000F44E0008AF5A00080000000000000004E2
:104F7000901000000000000000000000BB5A000874
:104F8000000000000000000490100000000000007D
:104F900000000000BF5A0008293100082004000466
:104FA0009010000075350008200400001052000821
:104FB00000000000C04F0008000000000C4F000877
:104FC00010520008AC4F0008D44F00080000000049
:104FD000244F000810520008C04F000800000000D5
:104FE000000000003C4F0008C55A00085930000876
:104FF00000001404901000000000000000000000F9
:10500000C95A0008932F00080000140490100000F3
:105010000000000000000000CD5A0008932F000897
:1050200001001404901000000000000000000000C7
:10503000D25A0008F530000800000C04901000005F
:105040000000000000000000D75A0008F5300008FA
:1050500001000C049010000000000000000000009F
:10506000DC5A00082931000800040C0490100000EC
:105070000000000000000000E25A0008293100088A
:1050800004040C0490100000000000000000000068
:10509000E85A00080000000000000003680C00004F
:1050A0000000000000000000135B0008000000008A
:1050B00000000003680C0000000000000000000079
:1050C0003F5B00080000000000000003680C0000C7
:1050D0000000000000000000695B00080000000004
:1050E00000000003680C0000000000000000000049
:1050F0008D5B00080000000000000003680C000049
:105100000000000000000000AC5B00080000000090
:1051100000000003680C0000000000000000000018
:10512000C55B00080000000000000003680C0000E0
:105130000000000000000000E55B00080000000027
:1051400000000003680C00000000000000000000E8
:10515000105C00080000000000000003680C000064
:105160000000000000000000315C000800000000AA
:1051700000000003680C00000000000000000000B8
:105180005A5C0008000000000000000390120000BC
:1051900000000000000000006B5C0008752F000894
:1051A00000000000000000000000000000000000FF
:1051B000725C00087F2F0008000000000000000063
:1051C0000000000000000000795C00087F2F00084C
:1051D00000000000000000000000000000000000CF
:1051E000805C0008892F000800000000000000001B
:1051F0000000000000000000875C0008452F000848
:1052000000000A04901000000000000000000000F0
:105210006C5600080000000024520008AC4F000843
:10522000644F00086C5600081052000838520008FD
:105230003C4F00087C4F00086C56000824520008C0
:105240000000000000000000944F00088D5C000882
:1052500000000000000000049010000000000000AA
:1052600000000000925C0008000000000000000444
:1052700090100000000000000000000058560008D8
:10528000000000009052000800000000E84F0008F5
:10529000585600087C520008A45200080000000084
:1052A000005000085856000890520008B8520008F4
:1052B000000000001850000858560008A4520008CA
:1052C000CC5200080000000030500008585600087A
:1052D000B8520008E05200080000000048500008E2
:1052E00058560008CC520008F45200080000000094
:1052F0006050000858560008E05200080000000006
:105300000000000078500008614D0008052D0008DD
:105310000000000000000000F5440008000000004C
:10532000614D0008052D000801000000000000008C
:10533000F544000801000000614D0008052D00083B
:105340000200000000000000F54400080200000018
:10535000614D0008052D000810000000000000004D
:105360000000000000000000985C0008291E0008F2
:105370002001040000000000811A00080000000065
:105380009D5C0008291E00082101040000000000A7
:10539000611A000800000000A25C0008291E000835
:1053A0002201040000000000471A0008000000006D
:1053B000A75C0008291E000823010400000000006B
:1053C0007535000823010000AD5C0008291E0008A7
:1053D00024010400000000007535000824010000CD
:1053E000B35C0008291E000825010400000000002D
:1053F0007535000825010000B95C0008291E000869
:105400002A01040000000000753500082A01000090
:10541000C05C0008291E00082B01040000000000E9
:10542000753500082B010000C75C0008291E000824
:105430002C01040000000000753500082C0100005C
:10544000CE5C0008291E00082D01040000000000A9
:10545000753500082D010000D55C0008291E0008E4
:105460002E01040000000000753500082E01000028
:10547000DC5C0008291E0008110104000000000087
:105480007535000811010000E35C0008291E0008C2
:105490001201040000000000753500081201000030
:1054A000EA5C0008291E0008130104000000000047
:1054B0007535000813010000F15C0008291E000882
:1054C0000901040000000000753500080901000012
:1054D000F85C0008291E00080A0104000000000012
:1054E000753500080A010000FF5C0008291E00084D
:1054F0000B01040000000000753500080B010000DE
:10550000614D0008291E0008010104000000000090
:105510000000000000000000485A000800000000E1
:105520002C5500080000000090500008485A000860
:10553000185500084055000800000000A850000859
:10554000485A00082C550008545500080000000077
:10555000C0500008485A0008405500086855000827
:1055600000000000D8500008485A000854550008B0
:105570007C55000800000000F0500008485A000860
:105580006855000890550008000000000851000808
:10559000485A00087C550008A45500080000000087
:1055A00020510008485A000890550008A4550008EA
:1055B0000000000038510008485A0008A4550008AF
:1055C000B85500080000000050510008485A000873
:1055D000B8550008E05500080000000068510008B8
:1055E000485A0008CC5500080000000000000000E8
:1055F00080510008345A00080000000008560008D6
:105600000000000098510008345A0008F4550008C2
:105610001C56000800000000B0510008345A000871
:10562000085600083056000800000000C851000865
:10563000345A00081C5600084456000800000000B8
:10564000E0510008345A00083056000800000000FD
:1056500000000000F8510008205A00080000000077
:105660006C5600087C5200084C520008205A000872
:10567000585600080000000010520008645200084C
:10568000F8590008000000009456000800000000CF
:1056900008530008F859000880560008A85600086A
:1056A0000000000020530008F85900089456000834
:1056B000BC5600080000000038530008F8590008E4
:1056C000A856000800000000000000005053000829
:1056D000065D00080000000000000000000000005F
:1056E0005D430008000000000B5D000800000000A2
:1056F00000000000000000000000000000000000AA
:10570000145D000800000000000000000000000020
:1057100000000000000000001D5D00080000000007
:1057200000000000000000009727000800000000B3
:10573000225D0008000000000000000000000000E2
:1057400000000000000000002A5D000800000000CA
:105750000000000000000000000000000000000049
:10576000325D0008000000000000000000000000A2
:1057700000000000000000003A5D0008000000008A
:1057800000000000000000004D470008000000007D
:10579000804E000800000000A45700080000000030
:1057A00068530008804E000890570008B85700085A
:1057B0000000000080530008804E0008A457000835
:1057C000CC5700080000000098530008804E0008E5
:1057D000B8570008E057000800000000B053000868
:1057E000804E0008CC570008F45700080000000065
:1057F000C8530008804E0008E05700080858000809
:1058000000000000E0530008804E0008F457000834
:105810001C58000800000000F8530008804E0008E3
:105820000858000830580008000000001054000814
:10583000804E00081C580008445800080000000072
:1058400028540008804E00083058000858580008B6
:105850000000000040540008804E00084458000832
:105860000000000000000000585400086C4E0008C2
:10587000000000008058000800000000705400087C
:105880006C4E00086C580008945800080000000096
:10589000885400086C4E0008805800080000000082
:1058A00000000000A05400081C4E0008000000008A
:1058B000BC58000800000000B85400081C4E000846
:1058C000A8580008D058000800000000D054000874
:1058D0001C4E0008BC58000800000000000000003A
:1058E000E8540008435D00080000000000000000CC
:1058F00000000000AD340008000000004C5D00080E
:105900000000000000000000000000000D4700083B
:1059100000000000614D0008F11A000800000404B6
:1059200090100000B91A000800000000555D000842
:1059300000000000000000000000000075350008B5
:10594000070100005E5D0008291E00081001040028
:10595000000000009D1A000800000000645D0008BF
:105960000000000000000000000000000000000037
:10597000000000006D5D0008000000000000000451
:10598000901000000000000000000000785D00089A
:10599000291E00080501040000000000D51A0008B7
:1059A00000000000084E0008000000000000000099
:1059B0000000000000550008614D000800000000D4
:1059C00000000400000000000000000000000000D3
:1059D0000000000000000000E4590008D84D000855
:1059E000D056000800000000D0590008F8590008FF
:1059F000084E0008E856000800000000E4590008BE
:105A00000C5A0008805600080057000800000000EB
:105A1000F8590008205A0008000000001857000834
:105A2000000000000C5A0008345A000858560008BC
:105A30003057000800000000205A0008485A0008AB
:105A4000F45500084857000800000000345A0008C8
:105A50005C5A000818550008605700080000000054
:105A6000485A0008000000000000000078570008B5
:105A700000F03C00000802400008024054334B2074
:105A8000323031342042616467652076302E3265D1
:105A9000206279207472756500434C6F770043482B
:105AA0006920004761696E20004669786564004C92
:105AB0006967687453656E736F72004D6963005453
:105AC0002D43616C0042617400546D7000546D7020
:105AD00020004D696352004D696325004C6974478D
