:100000002DC047C046C045C044C043C042C041C0E7
:1000100040C03FC03EC03DC02BC33BC03AC039C00A
:1000200087C037C036C096C31AC2B2C1BCC1CDC1E9
:10003000EAC115C218C217C2EBC1F3C114C213C280
:1000400012C211C210C2FBC10AC209C20CC20BC249
:100050000AC209C208C207C206C2F5C111241FBEE6
:10006000CFEFD2E0DEBFCDBF11E0A0E0B1E0EEE81F
:10007000F8E002C005900D92A430B107D9F721E055
:10008000A4E0B1E001C01D92A533B207E1F75DD253
:10009000FCC3B6CFE4E6F0E080818E7F8083EAE7A0
:1000A000F0E08FED8083ACE7B0E08C918F7D8C9396
:1000B0008081886880830895803190F490917C00DD
:1000C000907F982B90937C00883038F491E001C0A9
:1000D000990F8A95EAF7892F01C080E080937E000E
:1000E000613021F480917C00806405C0623029F485
:1000F00080917C008F7B80937C00089590917A00A2
:1001000096FD14C080930D01611101C080E08093C1
:10011000040180917C008F70806880932001809121
:100120007A00806480937A0080E0089581E00895E9
:100130001F920F920FB60F9211242F933F934F935C
:100140005F938F939F93EF93FF9340917C004F7049
:10015000509104015523C1F080910D015817A1F071
:10016000493090F4E42FF0E0EE0FFF1FE25FFE4F06
:10017000808191812091780030917900820F931FC6
:10018000969587959183808380910D01882359F0FE
:1001900080910D01815080930D0180917A008064DF
:1001A00080937A0012C051110EC0493060F4E42FE0
:1001B000F0E08091780090917900EE0FFF1FE25FF0
:1001C000FE4F9183808310922001FF91EF919F91C8
:1001D0008F915F914F913F912F910F900FBE0F9094
:1001E0001F9018958AB1806F8AB987B18F6087B9DF
:1001F0008BB1806F8BB988B18F6088B90895CF9328
:10020000DF938BB1806F8BB988B18F6088B9C8E8F4
:10021000D0E08EEF8883AAE8B0E08C938AEF90E07C
:1002200090938500809384004BB124E02D0D81E0F4
:1002300090E0BC0102C0660F771F2A95E2F79B0190
:10024000209524232BB928B10D2C01C0880F0A94C6
:10025000EAF78095822388B9ED2DF0E0EA5DFE4F44
:100260008BEF9081782F791B7883ED2DF0E0EE5D98
:10027000FE4F9081891B8C93DF91CF9108959BB1A4
:10028000906F9BB9E0E8F0E090819F70908397B108
:10029000907F97B995B7906195BF97B121E030E015
:1002A00001C0220F8A95EAF7922B97B988B1807F17
:1002B00088B92A9A88B1822B88B92A9888E08A95C9
:1002C000F1F787B12095822387B988B1822388B955
:1002D00085B78F7E85BF0895843038F4662329F072
:1002E000E82FF0E0E050FF4F608308958370809323
:1002F0000501089580910501E82FF0E0E050FF4FDF
:100300009081911101C091E04E2DE11003C061E098
:100310008FE012C0413019F460E080E018C0423034
:1003200061F490912001992319F0EE24E39408954B
:10033000A6DF6FEF80910501BFCE2E2D30E0892F13
:1003400090E002962817390719F461E083E0D6CED1
:100350008217930794F44150E42E8091200181117B
:100360000CC06FEF8FE0A8DE3DDF8EEF8093800042
:1003700084B1866084B91092210108958F2D90E098
:100380008A31910508F06FC0FC01EC5EFF4F0994C3
:1003900080913401882309F46BC0F090310183E02F
:1003A000809334015DC0E0913001E43020F4F0E04E
:1003B000EA5DFE4F06C0E83008F051C0F0E0E25EB2
:1003C000FE4F8091310180834AC08091340188239F
:1003D00009F44EC080911E0190911F01892B09F4F0
:1003E00042C060911E0170911F0180913101681B14
:1003F000710987FD739570930701609306018EE381
:1004000090E023D22CC080913401823040F530C07E
:1004100080912101811124C010922101E12C88E0FA
:100420000BC08091210181111BC010922101E12C90
:10043000809130015BDF81E08093210111C084E075
:10044000809309010CC080913401882389F0809148
:100450003001843020F46091310161113DDFF12CD5
:1004600010922B0105C0F12C10922B0181E0089510
:1004700080E008958E2DE11003C062E088E01CCE7C
:10048000833019F461E084E039CE8430C8F08150C3
:10049000E82E80912001811113C061E08FE00CDE15
:1004A0001092210180911E0190911F0190910601EF
:1004B000891B982F959595959595891B8093080193
:1004C00008958093BB00ECEBF0E08081806880832E
:1004D00080818F7B808380E008958F2D8830B9F0F4
:1004E0008930C1F0843051F580913001803428F496
:1004F00090E09FD1E6DF81E006C08091BC008F7B59
:100500008093BC008FEFF12C10922B010895809105
:1005100008010EC0E0913001E370F0E0EE0FFF1F24
:10052000E25FFE4F8081918196958795969587959C
:10053000C8DFF12C10922B0181E008958091BC005E
:100540008F7B8093BC008FEF089580E880936100DB
:100550001092610082B3806F82BB1DB881E084B9C4
:1005600017B81AB8CFEFCEB9DEEFD5B9C8B9CBB945
:1005700039DE22E02093B8008CEF8093B90086EE3C
:100580008093BA001092BD0085E48093BC008091F6
:1005900064008A7F809364009BEF95BD8DE387BDE7
:1005A00016BC20936E00809164008C7F8093640061
:1005B000C0938900C0938800C0938A001092850080
:1005C00010928400D093800089E180938100109282
:1005D00082008091800080932A019093860084B1EC
:1005E000866084B910926F0055DD629923C052DD98
:1005F0002FEF80E792E0215080409040E1F700C06B
:100600000000629917C0789488E08093210132DF5E
:10061000809120018111FCCF60911E0170911F011A
:1006200070930701609306018EE390E00ED1109263
:1006300021010DC08EE390E004D1813322E09207C6
:1006400014F081E191E0909307018093060183B754
:10065000897F90910901892B83BF109209017894B9
:1006600083B7816083BF889583B78E7F83BFEFCFC9
:100670001F920F920FB60F9211242F933F934F9317
:100680005F936F937F938F939F93AF93BF93EF93FA
:10069000FF9380910C018F5F80930C01883C58F090
:1006A00010920C0180910B018F5F80930B018436B7
:1006B00010F010920B0187B58D3311F48EE301C059
:1006C0008DE387BD80912101882371F08091210104
:1006D000813021F0883019F4CDDE01C00BDE8E2D83
:1006E0008F3F11F08F5FE82E80912101813041F022
:1006F00081E08D0D833010F4D82E01C0D12C7FDD28
:10070000FF20A1F080912B018F5F80932B0182331A
:1007100068F0F12C10922B018091BC008F7B8093AC
:10072000BC008091BC0080648093BC0086B580933F
:100730000A01FF91EF91BF91AF919F918F917F91AE
:100740006F915F914F913F912F910F900FBE0F903E
:100750001F9018951F920F920FB60F9211242F938E
:100760003F934F935F936F937F938F939F93AF9339
:10077000BF93EF93FF938091B900887F803AF1F1A6
:1007800060F4883609F43FC028F4882391F180365C
:10079000D1F134C0803839F031C0883B41F170F577
:1007A000883A29F12BC08091BB00F1100FC0982F1F
:1007B00092959F70F92E982F9F7090933001109210
:1007C000340110922B0187FF1EC00AC0E091340152
:1007D000EF5FE370E0933401F0E0E05DFE4F808373
:1007E000CDDD882381F08091BC008F7B0AC075DE4F
:1007F0000AC08091BC0080698093BC008091BC00DD
:1008000080648093BC008091BC0080688093BC00B1
:10081000FF91EF91BF91AF919F918F917F916F91D8
:100820005F914F913F912F910F900FBE0F901F90AE
:100830001895F999FECF1FBA81BDF89A992780B50E
:100840000895A8E1B0E042E005C011D0272F10C004
:10085000DC01862FE82FF999FECF1FBA05C0E1BD54
:10086000F89AE39500B40D924150C8F70895262FE9
:10087000F999FECF1FBA1FBA81BD20BD0FB6F894FB
:0E088000FA9AF99A0FBE01960895F894FFCFE8
:04088E000101010162
:00000001FF
